:020000040000FA
:0400000095EF15F073
:06200000EAEC11F01200F1
:08200800D9CFE5FFE1CFD9FFBC
:1020100000C0E5FF01C0E5FF006A9EB0002A005045
:10202000010A01E0C2D0030E0001665DD8B0ABD05A
:10203000FA6AFB6A00016635FA36E834FA36FC0BB8
:10204000500FE56E200EFA22000EFB22E450F96ECE
:102050002EEF10F05FEF10F091EF10F0006A80B0FB
:10206000002A0050D880E866D890006A00360050F8
:10207000010BF46E8050FE0BF410806E80A010D027
:1020800060C000F061C001F0011C0001896F001CFC
:102090000001886F0001883F02D00001892B73D0B6
:1020A00060C000F061C001F0005066080001886F58
:1020B000FD0E01540001896F0001662B64D0006A97
:1020C00080B2002A0050D880E866D890006A0036B6
:1020D0000050010BE844F46E8050FD0BF410806E4C
:1020E00080A210D062C000F063C001F0011C0001AA
:1020F000896F001C0001886F0001883F02D0000139
:10210000892B41D062C000F063C001F00050660826
:102110000001886FFD0E01540001896F0001662BDC
:1021200032D0006A80B4002A0050D880E866D89087
:10213000006A00360050010BE844E844F46E805019
:10214000FB0BF410806E80A410D064C000F065C05A
:1021500001F0011C0001896F001C0001886F000163
:10216000883F02D00001892B0ED064C000F065C00A
:1021700001F0005066080001886FFD0E0154000157
:10218000896F0001662B030E0001665D02E300010A
:10219000666BCD9000018951006E016A0050CF6ED0
:1021A00000018851CE6ECD809E90E4CF01F0E4CF47
:1021B00000F0E4CFD9FF1200D9CFE5FFE1CFD9FF7E
:1021C00000C0E5FF01C0E5FF02C0E5FF03C0E5FF79
:1021D00004C0E5FF05C0E5FF06C0E5FF07C0E5FF59
:1021E000020EDBCF00F0030EDBCF01F0040EDBCFDD
:1021F00002F0050EDBCF03F0060EDBCF04F0070E76
:10220000DBCF05F0080EDBCF06F0090EDBCF07F0C1
:10221000005000016C6F01506D6F02506E6F0350E3
:102220006F6F04500001706F0550716F0650726F30
:102230000750736F00016C5100017203F4CF01F07D
:10224000F3CF00F000500001766F0150776F00016E
:102250006C5100017003F4CF01F0F3CF00F0005097
:102260000001746F0150756F00016F510001700320
:10227000F3CF00F00001775100260050776F000186
:102280006E5100017103F3CF01F0015000260050A0
:102290000001776F00016E5100017003F4CF01F06F
:1022A000F3CF00F000017651026E7751036E0050BB
:1022B0000226015003220250766F0350776F00010F
:1022C0006D5100017103F4CF01F0F3CF00F0005025
:1022D00002260150032202500001766F0350776FEF
:1022E00000016D5100017203F3CF00F000500001B6
:1022F0007B6F00016D5100017003F4CF01F0F3CF4B
:1023000000F000500001796F01507A6F00016C51AC
:1023100000017303F3CF00F0005000017F6F000154
:102320006C5100017103F4CF01F0F3CF00F00050C5
:1023300000017D6F01507E6F0001786B00017C6BA6
:102340000001785100017425006E000179510001EF
:102350007521016E00017A5100017621026E0001A3
:102360007B5100017721036E0050746F0150756F2F
:102370000250766F0350776F00017C510001742585
:10238000006E00017D5100017521016E00017E513A
:1023900000017621026E00017F5100017721036E5A
:1023A00003C0E9FF02C0F4FF01C0F3FF0050E4CF17
:1023B00007F0E4CF06F0E4CF05F0E4CF04F0E4CF7B
:1023C00003F0E4CF02F0E4CF01F0E4CF00F0E4CF7B
:1023D000D9FF1200D9CFE5FFE1CFD9FF00C0E5FF5B
:1023E00001C0E5FFD3508F0B4009D36E0F015B6B2B
:1023F0000F015C6B0F015D6B070E936EFF0E856E18
:10240000926A806A9694CD503F0BCD6ECD50CF0B23
:10241000CD6ECF6ACE6A9E90F28C9D80F28ECD807A
:102420008FEC16F0006A81B0002A00018B51016E1A
:102430000050011816E000018A2BC90E00018A5DC8
:1024400012E300018A6B00018B51D880E866D890B6
:10245000006A0036005000018B6F010E0001686FAA
:1024600002D000018A6B006A81B2002A00018D51FE
:10247000016E0050011816E000018C2BC90E0001FE
:102480008C5D12E300018C6B00018D51D880E866F1
:10249000D890006A0036005000018D6F010E0001D7
:1024A000696F02D000018C6B006A81B4002A0001C0
:1024B0008F51016E0050011816E000018E2BC90EDD
:1024C00000018E5D12E300018E6B00018F51D880F8
:1024D000E866D890006A0036005000018F6F010E48
:1024E00000016A6F02D000018E6B0001685113E099
:1024F00000018B51010A07E1840E0001606F030E99
:102500000001616F06D06C0E0001606F070E0001C4
:10251000616F0001686B0001695113E000018D518A
:10252000010A07E1840E0001626F030E0001636F70
:1025300006D06C0E0001626F070E0001636F000190
:10254000696B00016A5113E000018F51010A07E134
:10255000840E0001646F030E0001656F06D06C0EDF
:102560000001646F070E0001656F00016A6B67C0B0
:1025700000F00001672B650E005C14E30001676B3F
:10258000006A84B4002A0050D880E866D890006AB7
:1025900000360050010BE844E844F46E8450FB0B15
:1025A000F410846E000EE56E140EE56E2BEC15F043
:1025B000E652E65237D7E4CF01F0E4CF00F0E4CFA3
:1025C000D9FF1200D9CFE5FFE1CFD9FF00C0E5FF69
:1025D00001C0E5FF02C0E5FF03C0E5FF04C0E5FF61
:1025E00005C0E5FF06C0E5FF07C0E5FF08C0E5FF41
:1025F00009C0E5FF0AC0E5FF0BC0E5FF0CC0E5FF21
:102600000DC0E5FF020EDBCF00F0030EDBCF01F0C3
:10261000040EDBCF02F0050EDBCF03F0060EDBCF9E
:1026200004F0070EDBCF05F0080EDBCF06F0090E35
:10263000DBCF07F0D88003AED890086A0836085080
:102640000FE0031C0C6E021C0B6E011C0A6E001CBA
:10265000096E092A0DE10A2A0BE10B4A0C2A08D05F
:1026600000C009F001C00AF002C00BF003C00CF07A
:10267000D88007AED890006A003600500FE0071CE3
:102680000D6E061C036E051C026E041C016E012AF1
:102690000DE1022A0BE1034A0D2A08D004C001F023
:1026A00005C002F006C003F007C00DF00D50E56E46
:1026B0000350E56E0250E56E0150E56E0C50E56E7C
:1026C0000B50E56E0A50E56E0950E56EB1EC13F063
:1026D000016EF3CF02F0F4CF03F0E9CF04F0080E5F
:1026E000E1260050081A085016E0041C076E031C6F
:1026F000066E021C056E011C006E002A04E1052A0C
:1027000002E1064A072A07C0E9FF06C0F4FF05C038
:10271000F3FF005007D004C0E9FF03C0F4FF02C07C
:10272000F3FF0150E4CF0DF0E4CF0CF0E4CF0BF059
:10273000E4CF0AF0E4CF09F0E4CF08F0E4CF07F0EB
:10274000E4CF06F0E4CF05F0E4CF04F0E4CF03F0EB
:10275000E4CF02F0E4CF01F0E4CF00F0E4CFD9FF02
:102760001200D9CFE5FFE1CFD9FF00C0E5FF01C0DE
:10277000E5FF02C0E5FF03C0E5FF04C0E5FF05C0BB
:10278000E5FF06C0E5FF07C0E5FF08C0E5FF09C09B
:10279000E5FF0AC0E5FF0BC0E5FF0CC0E5FF0DC07B
:1027A000E5FF020EDBCF00F0030EDBCF01F0040EDD
:1027B000DBCF02F0050EDBCF03F0060EDBCF04F01B
:1027C000070EDBCF05F0080EDBCF06F0090EDBCFDE
:1027D00007F0086A096A0A6A0B6A200E0C6E035039
:1027E000800BE8440D6E0050002601360236033699
:1027F0000850082609360A360B360D50D8A4088032
:1028000007500B5C08E106500A5C05E10550095CC5
:1028100002E10450085C09E30450085E0550095ABF
:1028200006500A5A07500B5A00800C060C50D7E18C
:1028300003C0E9FF02C0F4FF01C0F3FF0050E4CF82
:102840000DF0E4CF0CF0E4CF0BF0E4CF0AF0E4CFCE
:1028500009F0E4CF08F0E4CF07F0E4CF06F0E4CFCE
:1028600005F0E4CF04F0E4CF03F0E4CF02F0E4CFCE
:1028700001F0E4CF00F0E4CFD9FF1200D9CFE5FF9B
:10288000E1CFD9FF00C0E5FF01C0E5FF02C0E5FFD1
:1028900003C0E5FF04C0E5FF05C0E5FF06C0E5FF96
:1028A00007C0E5FF020EDBCF00F0030EDBCF01F027
:1028B000040EDBCF02F0050EDBCF03F0D88001AEB3
:1028C000D890046A0436045007E0011C066E001C10
:1028D000056E054A062A04D000C005F001C006F0C6
:1028E000D88003AED890006A0036005007E0031C81
:1028F000076E021C016E014A072A04D002C001F0D3
:1029000003C007F00750E56E0150E56E0650E56E16
:102910000550E56EEBEC15F0016EF3CF02F0040EFE
:10292000E1260050041A04500AE0021C036E011C48
:10293000006E004A032A03C0F3FF005003D002C018
:10294000F3FF0150E4CF07F0E4CF06F0E4CF05F049
:10295000E4CF04F0E4CF03F0E4CF02F0E4CF01F0E1
:10296000E4CF00F0E4CFD9FF1200D9CFE5FFE1CFEB
:10297000D9FF00C0E5FF01C0E5FF02C0E5FF03C0CD
:10298000E5FF020EDBCF00F0030EDBCF01F0E86ABB
:1029900001BEFF0E026E036E000EE56E0F0EE56EB9
:1029A000420EE56E400EE56E0350E56E0250E56E98
:1029B0000150E56E0050E56EE2EC12F0006EF3CFD0
:1029C00001F0F4CF02F0E9CF03F0080EE126035046
:1029D000E56E0250E56E0150E56E0050E56E000EAA
:1029E000E56E160EE56EE30EE56E600EE56EDCEC50
:1029F00010F0006EF3CF01F0F4CF02F0E9CF03F056
:102A0000080EE126000EE56E000EE56E000EE56E86
:102A10000A0EE56E0350E56E0250E56E0150E56E5C
:102A20000050E56EE2EC12F0006EF3CF01F0F4CF4F
:102A300002F0E9CF03F0080EE12600507AEC17F01F
:102A4000E4CF03F0E4CF02F0E4CF01F0E4CF00F0F4
:102A5000E4CFD9FF1200D9CFE5FFE1CFD9FF00C005
:102A6000E5FF01C0E5FF02C0E5FF03C0E5FF020E80
:102A7000DBCF00F0030EDBCF01F0030EE56EE80EB6
:102A8000E56E0150E56E0050E56E3EEC14F0006E10
:102A9000F3CF01F0040EE126E86A01BEFF0E026EDC
:102AA000036E0350E56E0250E56E0150E56E005076
:102AB000E56E000EE56E160EE56EE30EE56E600E39
:102AC000E56EDCEC10F0006EF3CF01F0F4CF02F015
:102AD000E9CF03F0080EE126000EE56E000EE56E6C
:102AE000030EE56EE80EE56E0350E56E0250E56EEE
:102AF0000150E56E0050E56EE2EC12F0006EF3CF8F
:102B000001F0F4CF02F0E9CF03F0080EE126005007
:102B100067EC17F0E4CF03F0E4CF02F0E4CF01F06C
:102B2000E4CF00F0E4CFD9FF120011EEFFF021EE68
:102B3000FFF0F86AA68EA69CE9680E0EEA6E0068A1
:102B4000ED6A0050FDE1500EF66E300EF76E000E8D
:102B5000F86E0900F5CF05F00900F5CF06F034D086
:102B60000900F5CF00F00900F5CF01F00900F5CF1D
:102B700002F009000900F5CFE9FF0900F5CFEAFFEF
:102B8000090009000900F5CF03F00900F5CF04F0B2
:102B900009000900F6CF07F0F7CF08F0F8CF09F0E9
:102BA00000C0F6FF01C0F7FF02C0F8FF03D0090024
:102BB000F5CFEEFF0306FBE20406F9E207C0F6FFDD
:102BC00008C0F7FF09C0F8FF0506CAE20606C8E21A
:102BD00000EC10F0FFD7D9CFE5FFE1CFD9FF00C05F
:102BE000E5FF01C0E5FF02C0E5FF03C0E5FF04C04B
:102BF000E5FF05C0E5FF06C0E5FF07C0E5FF020EE3
:102C0000DBCF00F0030EDBCF01F0040EDBCF02F0D0
:102C1000050EDBCF03F0046A056A100E066E015044
:102C2000800BE844076E005000260136045004264D
:102C300005360750D8A404800350055C02E1025019
:102C4000045C05E30250045E0350055A008006064A
:102C50000650E5E101C0F3FF0050E4CF07F0E4CFF8
:102C600006F0E4CF05F0E4CF04F0E4CF03F0E4CFC6
:102C700002F0E4CF01F0E4CF00F0E4CFD9FF12007E
:102C8000D9CFE5FFE1CFD9FF00C0E5FF01C0E5FFE7
:102C900002C0E5FF03C0E5FF04C0E5FF05C0E5FF96
:102CA00006C0E5FF07C0E5FF020EDBCF00F0030E14
:102CB000DBCF01F0040EDBCF02F0036A046A03509D
:102CC000056E0450066E076A005005260150062264
:102CD0000250072205C0E9FF06C0F3FF0750F3ECDE
:102CE00017F0056E055008E00550E56EEFEC16F0A4
:102CF000E652034A042AE3D7E4CF07F0E4CF06F014
:102D0000E4CF05F0E4CF04F0E4CF03F0E4CF02F029
:102D1000E4CF01F0E4CF00F0E4CFD9FF1200D9CF27
:102D2000E5FFE1CFD9FF00C0E5FF01C0E5FF936AF1
:102D3000816AF00E946E829082928294006A016A97
:102D4000230E015C02E1280E005C03E2004A012A26
:102D5000F7D710EC18F0020EE56EC8EC17F0E6524B
:102D6000180EE56E86EC17F0E652040EE56EB2EC36
:102D700017F0E652E4CF01F0E4CF00F0E4CFD9FF42
:102D80001200D9CFE5FFE1CFD9FF00C0E5FF01C0B8
:102D9000E5FFFF0E936E816A828282948280006AD0
:102DA000016A0150800F800F02E1140E005C03E203
:102DB000004A012AF6D781CF00F08290800E0016DB
:102DC0000050800A03E1936A010E02D0936AE86A18
:102DD000E4CF01F0E4CF00F0E4CFD9FF1200D9CF67
:102DE000E5FFE1CFD9FF00C0E5FF01C0E5FF020E1E
:102DF000DBCF00F0C1EC16F0016E0150010AFAE0E1
:102E0000936A8292828400C081FF8280006A016A94
:102E10000150800F800F02E1140E005C03E2004AB3
:102E2000012AF6D78290E4CF01F0E4CF00F0E4CF9E
:102E3000D9FF1200D9CFE5FFE1CFD9FF00C0E5FFF0
:102E400001C0E5FF020EDBCF00F0C1EC16F0016E11
:102E50000150010AFAE0936A8292829400C081FFD5
:102E60008280006A016A0150800F800F02E1140E17
:102E7000005C03E2004A012AF6D78290E4CF01F019
:102E8000E4CF00F0E4CFD9FF1200D9CFE5FFE1CFC6
:102E9000D9FF00C0E5FF01C0E5FF020EDBCF00F067
:102EA000030EDBCF01F00050010A05E1015003E100
:102EB000006A002A01D0006A016A01C0F3FF0050D5
:102EC000E4CF01F0E4CF00F0E4CFD9FF1200E80630
:102ED000E56E630E7AEC17F0E4500BE000D0E56E7F
:102EE000630E7AEC17F000D000D00000E450E82E1A
:102EF000F6D71200E8060000E85007E000D000D046
:102F000000D000D00000E82EFAD71200D9CFE5FF9C
:102F1000E1CFD9FF00C0E5FF020EDBCF00F01F0EAE
:102F20000016008A0050E56E1AEC17F0E652E4CF66
:102F300000F0E4CFD9FF1200D9CFE5FFE1CFD9FFF0
:102F400000C0E5FF020EDBCF00F00C0E001600887B
:102F50000050E56E1AEC17F0E652E4CF00F0E4CF33
:102F6000D9FF1200D9CFE5FFE1CFD9FF00C0E5FFBF
:102F7000020EDBCF00F0070E001600860050E56E53
:102F80001AEC17F0E652E4CF00F0E4CFD9FF1200BC
:102F9000D9CFE5FFE1CFD9FF00C0E5FF020EDBCFBF
:102FA00000F0030E001600840050E56E1AEC17F0D6
:102FB000E652E4CF00F0E4CFD9FF1200D9CFE5FF0D
:102FC000E1CFD9FF00C0E5FF020EDBCF00F0009E8D
:102FD000008E0050E56E1AEC17F0E652E4CF00F0D8
:102FE000E4CFD9FF1200E8AE04D0F3CFEAFFEE50F1
:102FF0001200E8BC35EF18F0E9CFF6FFF3CFF7FF8A
:10300000F86E0900F5501200D9CFE5FFE1CFD9FFE6
:10301000020EE56E1AEC17F0E652E4CFD9FF12006B
:10302000D9CFE5FFE1CFD9FF010EE56E1AEC17F01D
:10303000E652E4CFD9FF1200F2CFF6FFF29EA69E31
:10304000A69CE9CFA9FFA680A850F6BEF28E12007A
:1030500001005E300000600000000C0000007805F8
:0E306000780578050000000000001CEF18F055
:020000040030CA
:010006008574
:00000001FF
