:020000040000FA
:06200000DCEC10F0120000
:08200800D9CFE5FFE1CFD9FFBC
:1020100000C0E5FF01C0E5FF006A9EB0002A005045
:10202000010A01E0C2D0030E0001665DD8B0ABD05A
:10203000FA6AFB6A00016635FA36E834FA36FC0BB8
:10204000500FE56E200EFA22000EFB22E450F96ECE
:102050002EEF10F05FEF10F091EF10F0006A80B0FB
:10206000002A0050D880E866D890006A00360050F8
:10207000010BF46E8050FE0BF410806E80A010D027
:1020800060C000F061C001F0011C0001736F001C12
:102090000001726F0001723F02D00001732B73D0F8
:1020A00060C000F061C001F0005066080001726F6E
:1020B000FD0E01540001736F0001662B64D0006AAD
:1020C00080B2002A0050D880E866D890006A0036B6
:1020D0000050010BE844F46E8050FD0BF410806E4C
:1020E00080A210D062C000F063C001F0011C0001AA
:1020F000736F001C0001726F0001723F02D000017B
:10210000732B41D062C000F063C001F0005066083C
:102110000001726FFD0E01540001736F0001662B08
:1021200032D0006A80B4002A0050D880E866D89087
:10213000006A00360050010BE844E844F46E805019
:10214000FB0BF410806E80A410D064C000F065C05A
:1021500001F0011C0001736F001C0001726F00018F
:10216000723F02D00001732B0ED064C000F065C036
:1021700001F0005066080001726FFD0E015400016D
:10218000736F0001662B030E0001665D02E3000120
:10219000666BCD9000017351006E016A0050CF6EE6
:1021A00000017251CE6ECD809E90E4CF01F0E4CF5D
:1021B00000F0E4CFD9FF1200D9CFE5FFE1CFD9FF7E
:1021C00000C0E5FF01C0E5FF0F015B6B0F015C6B19
:1021D000070E936EFF0E856E926A806A9694CD50BC
:1021E0003F0BCD6ECD50CF0BCD6ECF6ACE6A9E9099
:1021F000F28C9D80F28ECD80006A81B0002A0001B1
:102200007B51016E0050011816E000017A2BC90EB7
:1022100000017A5D12E300017A6B00017B51D880E6
:10222000E866D890006A0036005000017B6F010E0E
:102230000001686F02D000017A6B006A81B2002A47
:1022400000017D51016E0050011816E000017C2B49
:10225000C90E00017C5D12E300017C6B00017D5121
:10226000D880E866D890006A0036005000017D6F83
:10227000010E0001696F02D000017C6B006A81B41D
:10228000002A00017F51016E0050011816E0000184
:102290007E2BC90E00017E5D12E300017E6B000102
:1022A0007F51D880E866D890006A0036005000015F
:1022B0007F6F010E00016A6F02D000017E6B00018A
:1022C000685113E000017B51010A07E1840E00010F
:1022D000606F030E0001616F06D06C0E0001606F2D
:1022E000070E0001616F0001686B0001695113E086
:1022F00000017D51010A07E1840E0001626F030EA7
:102300000001636F06D06C0E0001626F070E0001C2
:10231000636F0001696B00016A5113E000017F5196
:10232000010A07E1840E0001646F030E0001656F6E
:1023300006D06C0E0001646F070E0001656F00018E
:102340006A6B67C000F00001672B650E005C14E348
:102350000001676B006A84B4002A0050D880E866E8
:10236000D890006A00360050010BE844E844F46E4F
:102370008450FB0BF410846E000EE56E010EE56ECA
:102380003EEC13F0E652E65237D7E4CF01F0E4CF4B
:1023900000F0E4CFD9FF1200D9CFE5FFE1CFD9FF9C
:1023A00000C0E5FF01C0E5FF02C0E5FF03C0E5FF97
:1023B00004C0E5FF05C0E5FF06C0E5FF07C0E5FF77
:1023C000020EDBCF00F0030EDBCF01F0040EDBCFFB
:1023D00002F0050EDBCF03F0D88001AED890046A7E
:1023E0000436045007E0011C066E001C056E054A09
:1023F000062A04D000C005F001C006F0D88003AE64
:10240000D890006A0036005007E0031C076E021CDB
:10241000016E014A072A04D002C001F003C007F090
:102420000750E56E0150E56E0650E56E0550E56E0D
:1024300099EC12F0016EF3CF02F0040EE126005089
:10244000041A04500AE0021C036E011C006E004ACC
:10245000032A03C0F3FF005003D002C0F3FF015072
:10246000E4CF07F0E4CF06F0E4CF05F0E4CF04F0CA
:10247000E4CF03F0E4CF02F0E4CF01F0E4CF00F0CA
:10248000E4CFD9FF120011EEFFF021EEFFF0F86A61
:10249000A68EA69CE9680E0EEA6E0068ED6A0050F2
:1024A000FDE16A0EF66E270EF76E000EF86E09005B
:1024B000F5CF05F00900F5CF06F034D00900F5CFCF
:1024C00000F00900F5CF01F00900F5CF02F0090096
:1024D0000900F5CFE9FF0900F5CFEAFF090009007F
:1024E0000900F5CF03F00900F5CF04F00900090059
:1024F000F6CF07F0F7CF08F0F8CF09F000C0F6FFED
:1025000001C0F7FF02C0F8FF03D00900F5CFEEFFCE
:102510000306FBE20406F9E207C0F6FF08C0F7FF76
:1025200009C0F8FF0506CAE20606C8E200EC10F092
:10253000FFD7D9CFE5FFE1CFD9FF00C0E5FF01C04C
:10254000E5FF02C0E5FF03C0E5FF04C0E5FF05C0ED
:10255000E5FF06C0E5FF07C0E5FF020EDBCF00F098
:10256000030EDBCF01F0040EDBCF02F0050EDBCF54
:1025700003F0046A056A100E066E0150800BE844F1
:10258000076E005000260136045004260536075019
:10259000D8A404800350055C02E10250045C05E30A
:1025A0000250045E0350055A008006060650E5E11D
:1025B00001C0F3FF0050E4CF07F0E4CF06F0E4CF12
:1025C00005F0E4CF04F0E4CF03F0E4CF02F0E4CF71
:1025D00001F0E4CF00F0E4CFD9FF1200D9CFE5FF3E
:1025E000E1CFD9FF00C0E5FF01C0E5FF02C0E5FF74
:1025F00003C0E5FF020EDBCF00F0030EDBCF01F0DE
:10260000040EDBCF02F0050EDBCF03F0005000011B
:10261000746F0150756F02500001766F0350776F31
:102620000001745100017603F4CF01F0F3CF00F004
:1026300000500001786F0150796F00017451000162
:102640007703F3CF00F00001755100017603F3CF5B
:1026500001F0015000260001795100260050796FE9
:1026600079C0F3FF7851E4CF03F0E4CF02F0E4CF78
:1026700001F0E4CF00F0E4CFD9FF1200D9CFE5FF9D
:10268000E1CFD9FF00C0E5FF01C0E5FF020EDBCFBF
:1026900000F0030EDBCF01F0030EE56EE80EE56EF1
:1026A0000150E56E0050E56ECCEC11F0006EF3CFFA
:1026B00001F0040EE1260150E56E0050E56E420E79
:1026C000E56E400EE56EEEEC12F0006EF3CF01F019
:1026D000040EE126005096EC13F0E4CF01F0E4CFB5
:1026E00000F0E4CFD9FF1200D9CFE5FFE1CFD9FF49
:1026F00000C0E5FF01C0E5FF020EDBCF00F0030ED6
:10270000DBCF01F00050010A05E1015003E1006A4E
:10271000002A01D0006A016A01C0F3FF0050E4CF33
:1027200001F0E4CF00F0E4CFD9FF1200E806E56E37
:10273000630EA9EC13F0E4500BE000D0E56E630EDD
:10274000A9EC13F000D000D00000E450E82EF6D73A
:102750001200E8060000E85007E000D000D000D0EA
:1027600000D00000E82EFAD7120001007827000000
:10277000600000000C000000780578057805000076
:042780000000000055
:020000040030CA
:010006008574
:00000001FF
