:020000040000FA
:0400000000EF10F00D
:1020000011EEFFF021EEFFF0F86AA68EA69CE968BB
:102010000E0EEA6E0068ED6A0050FDE1A00EF66E4D
:10202000210EF76E000EF86E0900F5CF05F00900DD
:10203000F5CF06F034D00900F5CF00F00900F5CF58
:1020400001F00900F5CF02F009000900F5CFE9FF22
:102050000900F5CFEAFF090009000900F5CF03F0F8
:102060000900F5CF04F009000900F6CF07F0F7CF1B
:1020700008F0F8CF09F000C0F6FF01C0F7FF02C07A
:10208000F8FF03D00900F5CFEEFF0306FBE20406DC
:10209000F9E207C0F6FF08C0F7FF09C0F8FF050620
:1020A000CAE20606C8E2BEEC10F0FFD7D9CFE5FFC2
:1020B000E1CFD9FF00C0E5FF020EDBCF00F00A0E32
:1020C000005C37E2FA6AFB6A0034FA36E834FA3622
:1020D000FC0BE20FE56E200EFA22000EFB22E4500C
:1020E000F96E85EF10F087EF10F089EF10F08BEFAD
:1020F00010F08DEF10F08FEF10F091EF10F093EFE4
:1021000010F095EF10F097EF10F03F0E13D0060E81
:1021100011D05B0E0FD04F0E0DD0660E0BD06D0E92
:1021200009D07D0E07D0070E05D07F0E03D06F0EAD
:1021300001D0E86AE4CF00F0E4CFD9FF1200E8064E
:10214000E56E630EB2EC10F0E4500BE000D0E56EEB
:10215000630EB2EC10F000D000D00000E450E82E86
:10216000F6D71200E8060000E85007E000D000D0E3
:1021700000D000D00000E82EFAD71200936A8A6AD5
:10218000006A0050E56E56EC10F08A6EE652FA0EC8
:102190009FEC10F0002A0A0E005CF3E3F1D7120066
:1021A0000100AE21000060000000010000000000FE
:020000040030CA
:010006008178
:00000001FF
